:1000000012C024C023C022C021C020C01FC01EC0F7
:100010001DC01CC01BC01AC019C018C017C016C014
:1000200015C014C013C011241FBECFE5D4E0DEBF3D
:10003000CDBF10E0A0E6B0E0EAE3F1E002C0059039
:100040000D92A236B107D9F72CD075C0D9CF10BC0C
:1000500085E089B988E18AB986E880BD08955D9B0D
:10006000FECF8CB908955F9BFECF8CB108955D9B48
:10007000FECF8CB90895A0E0B0E0615070405F9B66
:10008000FECF2CB12A3021F4A80FB91F1C9208957D
:10009000A617B707A4F7FC01EA0FFB1F20831196F0
:1000A000EECFDF92EF92FF920F931F93DF93CF93E8
:1000B000CDB7DEB7C050D4400FB6F894DEBF0FBE48
:1000C000CDBFB89A10BC85E089B988E18AB986E8C5
:1000D00080BD88E893E129E130E0F9013197F1F73B
:1000E0000197D9F792E4D92E89E1E82EF12C8E01FF
:1000F0000F5F1F4F5D9BFECFDCB880E197E2F701F9
:100100003197F1F70197D9F7C80160E074E0B3DFE8
:10011000C80160E670E006D0009711F4C09AEACFFB
:10012000C098E8CFFB01DC018D910190801901108E
:0A013000D9F3990B0895F894FFCF5E
:02013A00420081
:00000001FF
