:1000000012C024C023C022C021C020C01FC01EC0F7
:100010001DC01CC01BC01AC019C018C017C016C014
:1000200015C014C013C011241FBECFE5D4E0DEBF3D
:10003000CDBF10E0A0E6B0E0ECE2F1E002C0059038
:100040000D92A03AB107D9F728D06EC0D9CF10BC15
:1000500083E389B988E18AB986E080BD08955D9B14
:10006000FECF8CB9089520E004C05D9BFECFECB9B3
:100070002F5FFC01E20FF11DE081EE23B1F75D9BE4
:10008000FECF8DE08CB988E893E128EC30E0F901EF
:100090003197F1F70197D9F7089510BC83E389B937
:1000A00088E18AB986E080BD88E893E128EC30E0F9
:1000B000F9013197F1F70197D9F780E690E0D3DFA6
:1000C00083E690E0D0DF80E790E0CDDF81E890E04C
:1000D000CADF8DE890E0C7DF87E990E0C4DFB89A17
:1000E00068E628EC30E059E64DE05D9BFECF6CB948
:1000F00088EE93E0F9013197F1F70197D9F75D9B0D
:10010000FECF5CB988EE93E0F9013197F1F70197E2
:10011000D9F75D9BFECF4CB988EE93E0F90131979A
:0C012000F1F70197D9F7E1CFF894FFCF79
:10012C0041540041542B424155443D393630300046
:10013C0041542B4E414D453D4D794D6F64756C6569
:10014C000041542B50494E3D313233330041542B36
:10015C00524F4C453D300041542B455849540000FA
:00000001FF
