:1000000012C02CC02BC02AC029C028C027C026C0BF
:1000100025C024C023C022C021C020C01FC01EC0D4
:100020001DC01CC01BC011241FBECFE5D4E0DEBF25
:10003000CDBF11E0A0E6B0E0E2E9FAE002C0059031
:100040000D92A038B107D9F711E0A0E8B1E001C0E6
:100050001D92A438B107E1F7D1D019C5D1CFA09A2C
:100060000895A89A80E58A95F1F7A898089580E008
:1000700090E0A0E0B0E099990EC00196A11DB11DDD
:10008000803C27E2920729E0A20720E0B20799F717
:100090002FEF3FEF32C01FBC82E08EBD1DBC1CBCE9
:1000A00020E030E040E050E0999B12C08CB59DB557
:1000B00081569A4E68F42F5F3F4F4F4F5F4F203C61
:1000C00087E2380789E0480780E0580769F713C0DE
:1000D0008CB59DB5A0E0B0E01EBC81362AEE92073B
:1000E00020E0A20720E0B20730F4B695A7959795D7
:1000F00087959C0102C02EEF3FEFC901089592B38E
:10010000282F207F9F70292B22BB9098919A25E061
:10011000922F9A95F1F79198E0E2F3E03197F1F799
:1001200092B38295807F9F70982B92BB919A2A956B
:10013000F1F7919880E49FE10197F1F708958FEF2F
:1001400081BB80E69AEE0197F1F782E0D8DF88E282
:10015000D6DF8CE0D4DF86E0D2DF81E0D0DF80E440
:100160009FE10197F1F7089581E0C9DF80E49FE105
:100170000197F1F780E8C3DF0895FC0135E060E204
:1001800073E040E45FE11DC082B38F70922F907FD7
:10019000892B82BB909A919A832F8A95F1F7919837
:1001A000CB010197F1F782B32295207F8F70282B26
:1001B00022BB919A832F8A95F1F79198CA010197F2
:1001C000F1F72191222301F70895DF93CF9300D017
:1001D000CDB7DEB790E8998390EC9A838150FE0109
:1001E000E60FF11D9081890F8ADF80E991E0019788
:1001F000F1F70F900F90CF91DF910895DF92EF927A
:10020000FF920F931F93DF93CF9300D000D0CDB711
:10021000DEB795DF88EE93E020E931E0F901319710
:10022000F1F70197D9F7A09A84B38C6384BB8A9ABB
:1002300040E5D42E8E010F5F1F4F30E9E32E31E0F1
:10024000F32EA89A8D2D8A95F1F7A89810DF2FEF3D
:100250008F3F920739F481E061E0B7DF80E690E0FC
:100260008CDFEFCFBC0180E090E086D126E933E45B
:100270004BE05DE33BD020E030E040E05FE336D090
:100280002AD1709383016093820120918001309183
:1002900081012617370709F067DF81E061E095DF0C
:1002A00087E690E06ADF8CE061E08FDF8091820179
:1002B00090918301B8014AE050E0A6D3C8015DDF08
:1002C0008EE061E082DF83E790E057DF809182017A
:1002D0009091830190938101809380018CE291E061
:1002E000F7013197F1F70197D9F7ABCFA0E2B0E072
:1002F000EBE7F1E052C369837A838B839C832D8380
:100300003E834F835887CE010196BE01675F7F4FC2
:10031000CCD2CE010596BE016F5E7F4FC6D29985C5
:10032000923088F089898230C8F0943019F4823094
:1003300051F404C0843029F4923081F487E790E0CE
:10034000C6C0923049F420E09A858A89981321E04A
:100350002A87CE010996BBC0823049F420E09A85F5
:100360008A89981321E02A8BCE014196B0C02D8452
:100370003E844F8458886D887E888F88988CEE24C0
:10038000FF248701AA24BB24650140E050E060E01F
:1003900070E0E0E0F0E0C10181709070892BE9F03D
:1003A000E60CF71C081D191D9A01AB012A0D3B1D17
:1003B0004C1D5D1D80E090E0A0E0B0E0E614F70485
:1003C0000805190520F481E090E0A0E0B0E0BA0152
:1003D000A901480F591F6A1F7B1FAA0CBB1CCC1C0C
:1003E000DD1C97FE08C081E090E0A0E0B0E0A82A04
:1003F000B92ACA2ADB2A3196E032F10549F0660CA7
:10040000771C881C991C5694479437942794C3CF23
:10041000FA85EA892B893C898B859C85280F391FB1
:100420002E5F3F4F17C0CA0181709070892B61F019
:1004300016950795F794E79480E090E0A0E0B0E887
:10044000E82AF92A0A2B1B2B76956795579547952D
:100450002F5F3F4F77FDE7CF0CC0440F551F661F3E
:10046000771F17FD4160EE0CFF1C001F111F21506C
:100470003040403090E0590790E0690790E47907F8
:1004800060F32B8F3C8FDB01CA018F779070A070D7
:10049000B07080349105A105B10561F447FD0AC033
:1004A000E114F1040105110529F0405C5F4F6F4F25
:1004B0007F4F40781A8EFE1711F081E08A8F4D8FA2
:1004C0005E8F6F8F78A383E0898FCE01499618D114
:1004D000A096E2E17EC2ACE0B0E0E0E7F2E06DC2FF
:1004E00069837A838B839C83CE010196BE016B5F07
:1004F0007F4FDBD18D81823061F1823050F18430C9
:1005000021F48E81882351F12EC02F81388537FD4B
:1005100020C06E812F3131051CF06623F9F023C015
:100520008EE190E0821B930B29853A854B855C8593
:1005300004C056954795379527958A95D2F7662337
:10054000B1F050954095309521953F4F4F4F5F4FFB
:100550000EC020E030E040E050E009C02FEF3FEF58
:100560004FEF5FE704C020E030E040E050E8B90121
:10057000CA012C96E2E03DC2A8E0B0E0E1ECF2E076
:1005800014C27B018C01611571058105910519F477
:1005900082E089835FC083E089838EE1C82ED12CFD
:1005A000DC82CB82ED82FE820F831887C801B701FF
:1005B00058D0FC013197F7FF3BC0222733272E1B71
:1005C0003F0B57016801022E04C0D694C794B7941C
:1005D000A7940A94D2F740E050E060E070E081E038
:1005E00090E0A0E0B0E004C0880F991FAA1FBB1FD5
:1005F0002A95D2F70197A109B1098E219F21A02345
:10060000B1230097A105B10521F041E050E060E081
:1006100070E04A295B296C297D294D835E836F83B5
:1006200078878EE190E08E1B9F0B9C838B8312C09A
:10063000309781F00E2E04C0EE0CFF1C001F111F1E
:100640000A94D2F7ED82FE820F831887CE1ADF0A52
:10065000DC82CB821A82CE01019652D02896EAE043
:10066000C0C1EF92FF920F931F937B018C0180E03A
:10067000E81680E0F80681E0080780E0180788F4B3
:100680008FEFE816F1040105110531F028F088E03C
:1006900090E0A0E0B0E017C080E090E0A0E0B0E023
:1006A00012C080E0E81680E0F80680E0080781E0EC
:1006B000180728F088E190E0A0E0B0E004C080E1F5
:1006C00090E0A0E0B0E020E230E040E050E0281B05
:1006D000390B4A0B5B0B04C016950795F794E7940A
:1006E0008A95D2F7F701E158FF4F8081281B310925
:1006F00041095109C9011F910F91FF90EF90089591
:10070000DF92EF92FF920F931F93FC01E480F5803C
:1007100006811781D1808081823048F480E090E0AA
:10072000A0E1B0E0E82AF92A0A2B1B2BA5C08430EF
:1007300009F49FC0823021F4EE24FF24870105C014
:10074000E114F1040105110519F4E0E0F0E096C0B0
:10075000628173819FEF623879070CF05BC022E8F9
:100760003FEF261B370B2A3131052CF020E030E01B
:1007700040E050E02AC0B801A701022E04C07695DF
:100780006795579547950A94D2F781E090E0A0E0ED
:10079000B0E004C0880F991FAA1FBB1F2A95D2F78B
:1007A0000197A109B1098E219F21A023B1230097B0
:1007B000A105B10521F081E090E0A0E0B0E09A0150
:1007C000AB01282B392B4A2B5B2BDA01C9018F7720
:1007D0009070A070B07080349105A105B10539F416
:1007E00027FF09C0205C3F4F4F4F5F4F04C0215C83
:1007F0003F4F4F4F5F4FE0E0F0E02030A0E03A077E
:10080000A0E04A07A0E45A0710F0E1E0F0E0790127
:100810008A0127C06038710564F5FB01E158FF4F7C
:10082000D801C7018F779070A070B07080349105A7
:10083000A105B10539F4E7FE0DC080E490E0A0E029
:10084000B0E004C08FE390E0A0E0B0E0E80EF91E55
:100850000A1F1B1F17FF05C016950795F794E7940D
:10086000319687E016950795F794E7948A95D1F726
:1008700005C0EE24FF248701EFEFF0E06E2F6795AF
:1008800066276795902F9F77D794DD24D7948E2F76
:100890008695492F462B582F5D29B701CA011F9114
:1008A0000F91FF90EF90DF900895FC01DB014081F4
:1008B00051812281622F6F7770E0221F2227221F31
:1008C0009381892F880F822B282F30E0991F992739
:1008D000991F11969C93119721153105A9F5411582
:1008E00051056105710511F482E037C082E89FEF80
:1008F00013969C938E9312979A01AB0167E0220F97
:10090000331F441F551F6A95D1F783E08C930DC0A8
:10091000220F331F441F551F12968D919C911397E0
:10092000019713969C938E931297203080E038079E
:1009300080E0480780E4580758F314962D933D93C0
:100940004D935C93179708952F3F310579F4411526
:1009500051056105710519F484E08C93089564FFD5
:1009600003C081E08C9312C01C9210C02F573040FE
:1009700013963C932E93129783E08C9387E0440F59
:10098000551F661F771F8A95D1F7706414964D9393
:100990005D936D937C93179708952F923F924F929A
:1009A0005F926F927F928F929F92AF92BF92CF92FF
:1009B000DF92EF92FF920F931F93CF93DF93CDB708
:1009C000DEB7CA1BDB0B0FB6F894DEBF0FBECDBF80
:1009D00009942A88398848885F846E847D848C8451
:1009E0009B84AA84B984C884DF80EE80FD800C815A
:1009F0001B81AA81B981CE0FD11D0FB6F894DEBF3D
:100A00000FBECDBFED010895FB019F01E894423078
:100A1000BCF04532ACF44A3029F497FB1EF49095B3
:100A200081959F4F642F77271ED0805D8A330CF00D
:100A3000895D8193CB010097A9F716F45DE251938C
:100A40001082C90100C0DC01FC01672F719177237E
:100A5000E1F7329704C07C916D9370836291AE1779
:100A6000BF07C8F30895AA1BBB1B51E107C0AA1F0B
:100A7000BB1FA617B70710F0A61BB70B881F991F3F
:100A80005A95A9F780959095BC01CD010895F894E9
:020A9000FFCF96
:100A92004572726F72210044697374616E636520DE
:100AA2003D200020636D00000000000000000000F7
:100AB20001020203030303040404040404040405FE
:100AC20005050505050505050505050505050506D3
:100AD20006060606060606060606060606060606B4
:100AE20006060606060606060606060606060607A3
:100AF2000707070707070707070707070707070784
:100B02000707070707070707070707070707070773
:100B12000707070707070707070707070707070763
:100B22000707070707070707070707070707070852
:100B32000808080808080808080808080808080833
:100B42000808080808080808080808080808080823
:100B52000808080808080808080808080808080813
:100B62000808080808080808080808080808080803
:100B720008080808080808080808080808080808F3
:100B820008080808080808080808080808080808E3
:100B920008080808080808080808080808080808D3
:100BA20008080808080808080808080808080800CB
:00000001FF
