:1000000012C019C018C017C016C015C014C013C044
:1000100012C011C010C00FC00EC00DC00CC00BC06C
:100020000AC009C008C011241FBECFE5D4E0DEBF5E
:10003000CDBF26D049C0E4CF8FB5826A8FBD8EB5C3
:1000400088618EBD8EB582608EBD87B3866087BBAA
:10005000089581B3806681BB82B38F7982BB089596
:1000600090E09BBD8ABD089590E099BD88BD08953C
:10007000959A089595980895969A08959698089552
:1000800081B3806681BB82B38F7982BBD5DF68EC98
:1000900070E044E650E029E130E07BBD6ABD959A0E
:1000A00059BD48BD969A80E593ECF9013197F1F777
:1000B0000197D9F79598969880E29EE4F9013197D7
:0C00C000F1F70197D9F7E9CFF894FFCFD2
:00000001FF
