:1000000012C019C018C017C016C015C014C013C044
:1000100012C011C010C00FC00EC00DC00CC00BC06C
:100020000AC009C008C011241FBECFE5D4E0DEBF5E
:10003000CDBF02D0D1C0E4CF87B38E7F87BB81B361
:100040008FEF81BB20E0B099FECF822F90E0019628
:1000500065E070E09AD0282F99278230910509F445
:1000600040C02CF4009759F0019711F184C08330FF
:10007000910509F44FC0059709F465C07CC082B3AF
:100080008E7F82BB82B38D7F82BB82B38B7F82BB2C
:1000900082B3877F82BB82B38F7E82BB82B38F7D28
:1000A00082BB82B38F7B82BB82B38F7782BB63C0FC
:1000B00082B3816082BB82B38D7F82BB82B3846056
:1000C00082BB82B3877F82BB82B38F7E82BB82B3C7
:1000D000806282BB82B38F7B82BB82B3806882BB2B
:1000E0004AC082B38E7F82BB82B3826082BB82B3FE
:1000F0008B7F82BB82B3886082BB82B3806182BB0C
:1001000082B38F7D82BB82B3806482BB82B38F77E0
:1001100082BB31C082B3816082BB82B38D7F82BBE0
:1001200082B38B7F82BB82B3886082BB82B38F7EB7
:1001300082BB82B3806282BB82B3806482BB82B3A3
:100140008F7782BB18C082B3826082BB82B38E7FFE
:1001500082BB82B3877F82BB82B3846082BB82B35F
:100160008F7D82BB82B3806182BB82B3806882BB99
:1001700082B38F7B82BB3FE38DE093E031508040C0
:100180009040E1F700C000005ECF97FB072E16F409
:10019000009406D077FD08D00BD007FC05D03EF4C4
:1001A000909581959F4F0895709561957F4F089523
:1001B000AA1BBB1B51E107C0AA1FBB1FA617B7078D
:1001C00010F0A61BB70B881F991F5A95A9F78095A9
:0C01D0009095BC01CD010895F894FFCF7C
:00000001FF
