:1000000012C019C018C017C016C015C014C013C044
:1000100012C011C010C00FC00EC00DC00CC00BC06C
:100020000AC009C008C011241FBECFE5D4E0DEBF5E
:10003000CDBF2FD067C0E4CF969A9698089580E000
:10004000089585EA08958AE5089589E6089586E980
:10005000089588EA089540E050E0682F70E0959890
:1000600022B3CB01042E02C0959587950A94E2F73E
:100070008170907035E0880F991F3A95E1F7282B31
:1000800022BB969A96984F5F5F4F4830510539F7DB
:100090000895EF92FF921F93CF93DF9381B3806E09
:1000A00081BB10E048EAE42E41E6F42EC2E3D0E042
:1000B000163009F411E09798C7010197F1F7133052
:1000C00089F0143028F4113049F0123029F408C0B6
:1000D000143051F0153051F080E009C085EA07C0B6
:1000E0008AE505C089E603C086E901C088EAB3DF76
:1000F000979A80E197E2FE013197F1F70197D9F7DE
:080100001F5FD6CFF894FFCF7A
:00000001FF
